:10000000001000205D0B0000590B0000590B000090
:1000100005790000590B0000590B0000590B000036
:10002000590B0000590B0000590B0000590B000040
:10003000590B0000590B0000D7540000590B000069
:10004000590B000099C70000590B0000590B000024
:10005000E9BE000005C80000A5C70000BDC700003C
:100060009DC700009110000069110000590B0000AD
:100070008109000071090000590B0000590B0000B4
:10008000590B0000590B000091110000590B0000A2
:10009000590B0000590B0000590B0000590B0000D0
:1000A000590B0000590B0000590B0000590B0000C0
:1000B00009C80000A1C700002DE00000097F000072
:1000C00049C80000590B0000B9B20000590B0000EC
:1000D000590B0000590B0000590B0000590B000090
:1000E000590B0000590B000010B5054C237833B9AB
:1000F000044B13B10448AFF300800123237010BDFB
:100100009815002000000000E42E010008B5034B04
:100110001BB103490348AFF3008008BD0000000095
:100120009C150020E42E0100154B002B08BF134B3B
:100130009D46A3F5803A00218B460F461348144A8A
:10014000121A0EF0B7FF0F4B002B00D098470E4B42
:10015000002B00D098470020002104000D000D481E
:10016000002802D00C48AFF300800EF037FF2000CB
:10017000290000F021FB0EF00BFF00BF000008007B
:100180000010002000000000000000009815002072
:10019000DC64002000000000000000002DE90048A1
:1001A0000C4808F0B5FF0C4B196C586C4FF0000B65
:1001B0004BEA01020346094808F0AAFF084B1B78E6
:1001C0002BB90849084808F0A3FFBDE80088074993
:1001D000F8E700BF70010100B081E00F7801010075
:1001E000001000206C010100900101006801010075
:1001F00008B5034B01221A70024808F089FF08BDB8
:10020000F0200020BC01010008B58368C26853F8E3
:1002100022301B783BB1064B01221A700549064873
:1002200008F076FF08BD024B00221A700349F6E77A
:100230000010002068010100A40101006C01010010
:1002400038B505F085FB0446134800F040FE13481E
:1002500000F03DFE00221146204609F073F840B937
:100260000F4808F055FF00F083FA00F085F82046AB
:1002700038BD05460B4B40220B490C4808F048FF9F
:100280000B4808F045FF29460A4808F041FF0A4894
:1002900008F03EFFE4E700BFB8090100D009010003
:1002A00040020100D4010100E0010100F001010061
:1002B0000C020100100201009C02010030B595B053
:1002C0000BAC264D0FCD0FC40FCD0FC42B68237080
:1002D000234C25680BA80EF0C9FF02460BA928463F
:1002E00006F094FE206806F045FE01AC1D4D0FCDD2
:1002F0000FC40FCD0FC495E8030044F8040B24F895
:10030000021B090C217001A80EF0B0FF024601A9E2
:10031000002006F07BFE144808F0FAFE134808F0AF
:10032000F7FE00240AE0124900250D55114808F097
:10033000EFFE2C4602E018460EF0C4FE0EF03CFE26
:1003400043B2002BFADD0D2BEDD00A2BEBD04E2C57
:10035000F1D8074A10550134E4B2ECE7B8020100C5
:1003600020110020DC0201004C020100A00201006B
:10037000B4150020A402010010B58EB0134C206803
:1003800000230222194680680EF0B0FE2068002388
:100390000222194640680EF0A9FE0AAB0893022318
:1003A000079300230693059304934FF480720392FE
:1003B00019220292064A019214220092054A064925
:1003C000064804F0EDFB0EB010BD00BFC0130020C6
:1003D00004160020BD02000004030100041A0020DE
:1003E00038B50546084808F093FE002405E0295D6D
:1003F000064808F08DFE0134E4B20F2CF7D904480A
:1004000008F086FE38BD00BF7405010090050100AC
:100410009C02010030B585B004467C4B1B78DBB2F2
:10042000052B00F2ED80DFE813F006008800920053
:100430009C00E700A600764B1B68002B37D06A466D
:100440000221204609F0C2FA714B18601B68002B8C
:100450003DD0BDF8042002996E480EF007FE0399C6
:1004600049B1BDF80220BDF80430D21A92B26948F1
:1004700018440EF0FBFD664B1968204609F0ACFAF3
:100480000546002833D100221146204608F05AFFC5
:10049000044600283CD1604B1B78002B49D15F48B3
:1004A00000F01AFD594B05221A7005B030BD5C4BA7
:1004B0007F225C495C4808F02BFE5C4808F028FE6F
:1004C0005B4808F025FE5B4808F022FEB7E7544B76
:1004D00082225449544808F01BFE544808F018FE84
:1004E000554808F015FE534808F012FEB1E74C4B92
:1004F00085224C494C4808F00BFE4C4808F008FE99
:1005000029464E4808F004FE4A4808F001FEBAE7C2
:10051000434B87224349444808F0FAFD434808F01A
:10052000F7FD2146464808F0F3FD424808F0F0FD8B
:10053000B1E73848FFF754FFB1E7424808F0E8FD5B
:10054000414800F0C9FC314B05221A70ADE73F4B22
:10055000D3E900233E4808F0DBFD2C4B05221A703E
:10056000A3E73A4BD3E900233A4808F0D1FD274BE3
:1005700005221A7099E7384B1B78002B95D04FF461
:1005800080731022354909F000FA0546B0F5807FE6
:1005900012D0234BA7222349314808F0B9FD234844
:1005A00008F0B6FD4FF4807229462E4808F0B0FDE1
:1005B000204808F0ADFDFEE700231A461946204604
:1005C00008F0B0FE044630B9274808F0A1FD224BE0
:1005D00000221A7069E7124BA9221249124808F04A
:1005E00097FD124808F094FD2146204808F090FD40
:1005F000104808F08DFDE7E7044B05221A7054E718
:10060000024B19781A4808F083FD4EE701100020CC
:10061000001C0020001B002000100020B809010071
:100620001C03010030030100F00101000C02010075
:10063000440301009C020100BC030100FC03010013
:10064000200401003C040100D0090100F81A002038
:10065000540401007C040100F0200020041000205C
:10066000A4040100BC0401003005010014050100D0
:100670004005010008B5024B1868FFF7CBFEFAE70A
:10068000843A00202DE9F0410646174698462C4A48
:10069000002302EA070403EA080554EA05030BD025
:1006A00007F00800002150EA01031CD12549C1E9E7
:1006B0000045254B02221A7007F02A5208F0110358
:1006C00052EA030107D007F400000021014313D0D0
:1006D0001D4B01221A70002408F4807554EA0503AA
:1006E0001FD1BDE8F081304609F074F9174B18604E
:1006F000154B00221A70DFE71249C1E90023D1E946
:10070000000100F000520023134303D10E4B0322DB
:100710001A70E0E70B4BD3E900230D4808F0F8FC12
:10072000F4E700221146304609F0F4F8094B18703E
:100730001B78002BD5D0034BC3E90045D1E700BFA0
:10074000088D0100F81A002001100020001C002074
:100750009C050100F01A002008B500F00DFB0128EF
:1007600000D008BD014B01221A70FAE7F0200020EA
:1007700000B58FB00AAB08930223079300230693BA
:10078000059304934FF48072039219220292064A51
:10079000019215220092054A0549064804F000FA24
:1007A0000FB05DF804FB00BF041C002075060000BC
:1007B000680501000420002008B507F0CBFBFFF717
:1007C0003FFD034B186007F0D1FB002008BD00BFC0
:1007D000843A002000207047704708B500F013F9F4
:1007E00008BD000030B58BB0104C2268104B1A6069
:1007F000104D114B2B60114B019306F0DBFB029067
:100800002B6803930E4B04930E4B05934FF4C87360
:10081000069314230793002308933223099301A915
:10082000206805F016FA0BB030BD00BF1C11002087
:100830001863002014630020101100202409010017
:1008400034270020F420002008B50421112001F0F5
:10085000F1F80121084800F037FD0221074801F0B6
:10086000E9F80221064801F0E5F80221054801F007
:10087000E1F8002008BD00BF30053E0002001E0068
:10088000030020000500240008B500F045F806F03C
:1008900051FF08BD08B50F4B01225A641A6842F493
:1008A00080721A600C4A136843F4F843136000F036
:1008B000C1F806F009FB06F027FB06F047FBFFF73F
:1008C000C3FF06F011FB00F0A7F802F02DF902F0CB
:1008D00037F908BD00000E40A4310E4008B502F003
:1008E00037F908BD08B500F06DF800F077F808BDDD
:1008F00008B507F0CDF8FFF7C7FF06F06FFFFFF769
:1009000071FF08BD08B504F0E5FF05F07BF805F0C0
:1009100027F808BD7047000070B598B0114E11ACB3
:1009200035460FCD0FC495E8070084E8070006ACF4
:1009300006F11C050FCD0FC40FCD0FC495E80700BD
:1009400084E8070002AC06F148030FCB84E80F00EF
:10095000054B009306AB11AA2146044806F018FE89
:1009600018B070BD3C090100D82A0020A42B00203B
:1009700008B5024B186806F0A7FE08BDA42B00209E
:1009800008B5024B186806F09FFE08BDA42B002096
:10099000704708B5FFF7FCFF08BD704708B5FFF7C3
:1009A000FCFF08BD704738B504460D4604F09AFFB9
:1009B00029462046FFF7F6FF38BD08B5FFF762FE6F
:1009C00008BD000008B5034800F0CEF9024800F069
:1009D000CBF908BD98090100A809010008B5034832
:1009E00000F070FA024800F06DFA08BDB809010085
:1009F000D009010008B5012304220521002001F0DF
:100A00006DFD002008BD08B500230422052118460D
:100A100001F064FD002008BD08B50121044800F084
:100A200053FCFFF7DAFEFFF7E5FF00F017F808BD0B
:100A300000250A0008B50121014800F045FC08BD69
:100A400000250A00014B10221A6070470CA00044D8
:100A5000014B10221A6070470CA0004670B586B09A
:100A60006C46374D0FCD0FC495E8030084E80300B2
:100A70000121344800F028FC334E0121304600F0BB
:100A800023FC01258DF80E50304B0293304C694603
:100A9000204601F03EFF2B4604220621022001F0F1
:100AA0001DFD00232A460721022001F017FD2B46D9
:100AB00004220821022001F011FD2B4604221146D8
:100AC000002001F00BFD234BA3670B2363674FF45A
:100AD000487007F04FFAFFF7B5FF142007F04AFA05
:100AE000FFF7B6FF232007F045FAFFF7ABFFB92168
:100AF000204601F058FFFFF7ABFF00231A460621FE
:100B0000022001F0EBFC00231A460721022001F02D
:100B1000E5FC2B4600220821022001F0DFFC2B46D9
:100B200000220421104601F0D9FC204601F08EFE7F
:100B30000021A1676167304600F0C6FB06B070BDBA
:100B4000E809010000250A000042040000127A00B2
:100B5000000401400B0B000BFEE7000010B500F095
:100B60006FF8074B074C1946074A04E01068086005
:100B7000043304310432A342F8D3FFF7D5FA00BF9F
:100B80000010002098150020EC2E0100004870474E
:100B900000F04902114BD3F8943003F00703023BF5
:100BA000032B0DD8DFE803F0050F02080C4B186883
:100BB0000BE00C4B186808E00B4B1868400804E089
:100BC000094B186801E04FF40040044BD3F80031A2
:100BD000C3F304230133B0FBF3F0704700400E4031
:100BE00050110020481100204C11002008B5FFF7DB
:100BF000D1FF054BD3F80831C3F308230133B0FB11
:100C0000F3F0024B186008BD00400E404411002074
:100C1000014B1868704700BF4811002008B5064B0B
:100C20001860064BD3F8943003F00703022B00D072
:100C300008BDFFF7DBFFFBE74811002000400E4036
:100C4000044B054A9A60D3F8882042F47002C3F836
:100C50008820704700ED00E0000000004FF40040E5
:100C600070474FF47A707047014B1868704700BFA7
:100C70005011002000230360704703680B6001607F
:100C8000704790B130B404466AB161B1002003E00E
:100C900004F8013B01320130137813B14D1E854237
:100CA000F6D80023237030BC70477047034640B12C
:100CB000002001E0013301301A781AB18842F9D3DB
:100CC00070470020704708B54FF0FF31FFF7EEFF87
:100CD00008BD80B170B5064632B129B115460C4643
:100CE000FFF7F1FF844200D870BD2A46211A304434
:100CF000FFF7C7FFF8E7704710B3F8B50F46064691
:100D000051B90120F8BD20340FE0601BFAD13378CF
:100D1000002BF7D00136013734780EF087F92044E4
:100D2000437803F00303012BEDD03D780EF07EF9FC
:100D30002844437803F00303012BE6D12035E4E790
:100D400001207047064B1B681844064A904203D89E
:100D5000034A1060184670474FF0FF33FAE700BFB0
:100D6000541100200080002008B5436813B10068CA
:100D7000984708BD2220FCE708B5836813B10068D6
:100D8000984708BDFF20FCE70023144A12789A42D6
:100D900023D910B51C46124A52F8232011684A790B
:100DA000824206D00133DBB20C4A12789A42F1D863
:100DB00012E00B7903EB430318010A4B034402EBE7
:100DC000C30292001368B3FA83F35B090B70044B00
:100DD00053F82400FFF7C0FC10BD704794090100D0
:100DE000341100201CA0104210B582B0044601212D
:100DF000164800F069FA002301226179207901F098
:100E00006DFB2279637902EB42021101104A0A4418
:100E100003EBC2039B001B68B3FA83F35B092370E7
:100E2000A379022B02D0002002B010BD00F080F99F
:100E30000849607900F08AF96179207901230193EA
:100E400000930A4601F0ECFAEDE700BF00250A0026
:100E50001CA01042890D00000078704710B4027980
:100E6000437902EB42021101154A0A4403EBC20323
:100E70009B001A68141C18BF01248179012907D02E
:100E800019B9B2FA82F2520902705DF8044B704748
:100E900043885B009BB2234343F47F4343F0C0038A
:100EA0004FF6E072934205D04FF6DF72934204D0C2
:100EB0004380EAE701220270F6E700220270F7E7BA
:100EC0001CA0104208B543680068984708BD08B5E3
:100ED000C3680068984708BD08B50369006898476B
:100EE00008BD000010B504460121094800F0ECF9E6
:100EF0000121084800F0E8F9A378B3FA83F35B090D
:100F000004226178207801F0E9FA002010BD00BFCA
:100F10004041050000250A0083784BB103784078F2
:100F200003EB4303190101228240064B5A507047DC
:100F30000378407803EB4303190101228240024BFE
:100F40005A5070470CA000460CA0004483784BB167
:100F50000378407803EB4303190101228240064BDA
:100F60005A5070470378407803EB4303190101227C
:100F70008240024B5A5070470CA000440CA000461F
:100F8000027843780121994002EB4202130103F1F8
:100F9000804303F52043996170470000027843784D
:100FA00002EB42021101074A0A4403EBC2039B0011
:100FB0001B68DBB2827812B9B3FA83F35B09184677
:100FC000704700BF0CA01042124B1B78F3B1F8B170
:100FD00010B5044600F08FFE0023072B12DC0E4AEA
:100FE00002EB0312127B0AB10133F6E723600A4ACF
:100FF0001B01D11801240C730024D45000F07FFE93
:10100000204602E000F07BFE044810BD0448704713
:1010100004487047402D0020C02B0020048000F0C1
:10102000028000F0018000F000B583B0144B1B6813
:10103000019300238DF8043000F05DFE114B1B7806
:1010400033B9104B01221A7000F059FE002309E059
:1010500000F055FE0C480FE00C4A02EB0312002191
:1010600011730133072BF7DD04238DF807300DEBE7
:10107000030001F08FFA002003B05DF804FB00BF0D
:10108000000A0100402D0020038000F0C02B00204A
:10109000F8B5194B1F6EDB6E1F4002D401260024E9
:1010A00002E0FEE701347600072C24D83E42F9D056
:1010B000114B9E662301114AD358002BF2D002EB4C
:1010C0000415A9680131A9606A682046984780F034
:1010D0000103DBB26A7B012AE4D1002BE2D0084B8A
:1010E00003EB4413197B6FF3410119731A7F6FF3FC
:1010F00041021A77D6E7F8BD00200E40C02B002031
:10110000402C002010B504467CB194FAA4F0B0FA4B
:1011100080F0C2B20123934024EA0304034B53F846
:101120002230002BF0D09847EEE710BD442D002070
:10113000054B4FF48022C3F880211A604FF480627F
:10114000C3F880211A60704700E100E038B504461A
:101150000D4600F0D0FD034B43F8245000F0CFFDC6
:1011600038BD00BF442D002008B5084BD3F8280433
:10117000D3F81C24104020F42A5020F02A00400408
:10118000400CC3F82404FFF7BDFF08BD00A00040D9
:1011900008B5084BD3F82804D3F81C24104020F4D9
:1011A000AA4020F055000004000CC3F82404FFF707
:1011B000A9FF08BD00A000400C4B984208D90C4B79
:1011C000984202D90221012204E001210A4601E0ED
:1011D00000210A46074B1A60074AD2F8003123F073
:1011E000807343EA0163C2F8003170470048E801A8
:1011F0000090D0034000C84300400E40014B1868E7
:10120000704700BF5811002010B4124B5B680023D8
:1012100000E00133042B0BD80F4A02EBC302147910
:10122000CAB29442F5D10C4A52F833208242F0D32C
:10123000052B0DD0084A02EBC3035979054A5368C0
:1012400023F0407343EA016353605DF8044B704739
:101250000321F3E700000E40040A010003300F28C9
:1012600028BF0F200007704708B5FFF793FC044B19
:10127000D3F80031C3F3042303FB000008BD00BF13
:1012800000400E4010B5074B1C6C41F671321A64D9
:10129000FFF77CFC0021FFF7B7FF14B1014B0022E0
:1012A0001A6410BD00000E4010B5064B1C6C41F6D0
:1012B00071321A64FFF7A8FF14B1024B00221A64BE
:1012C00010BD00BF00000E40C0F30323013B092BFB
:1012D0003AD8DFE803F005083939180B0E39111533
:1012E00000221A4B11E00022194B0EE00122194B8B
:1012F0000BE01022184B08E04FF48032174B04E04B
:101300000022174B01E00022164BC0F30430A2B1BB
:1013100010B40E4CD4F8444114F0010F04D10B4C1E
:10132000D4F840412242FAD103F1047300EBC30028
:10133000800001605DF8044B704703F1047300EB1B
:10134000C300800001607047704700BF00400E403E
:10135000C0400E40E0400E40E8400E40F0400E40DD
:1013600050410E40B0400E40C0F30313013B092B27
:1013700057D8DFE803F0050B111B56562127414DC6
:101380002B4BD3F80001C0F304207047284BD3F84F
:101390001401C0F304207047254BD3F80001C0F3BB
:1013A0000060431C0120984001387047204BD3F85F
:1013B0000C01C0F3082070471D4BD3F80801C0F39F
:1013C000082070471B4B984204D01B4B98420AD010
:1013D00000207047164BD3F8203103F00F03012093
:1013E000984001387047124BD3F82031C3F30113F2
:1013F0000120984001387047104B984213D10C4B94
:10140000D3F82831C3F30113012098400138704705
:101410000B4B984209D1064BD3F8300100F0030082
:10142000704700207047002070470020704700BFC1
:1014300000400E408006160080162E0090171A00FD
:10144000A009140008B5FFF78FFF013008BD0000A8
:1014500000F00F00013807286DD8DFE800F0041B0A
:101460002C6C40516C5B3B4BD3F8943003F007037A
:10147000023B052B0CD8DFE803F0056003070B09DE
:1014800002207047042070470B2070470C207047E3
:10149000052070472F4BD3F8803003F00703022B51
:1014A0004DD0042B05D0012B01D001207047032023
:1014B00070470A207047274BD3F8843003F00703A6
:1014C000013B032B09D8DFE803F0023C06040320AC
:1014D00070470A20704706207047012070471D4B57
:1014E000D3F8883003F00703022B2CD0042B05D04F
:1014F000012B01D001207047032070470A2070475C
:10150000144B1B6F13F001031FD00BB10920704760
:10151000012070470F4BD3F85C3103F03003202BD0
:1015200005D0302B05D0102B11D00120704704209E
:101530007047082070470020704703207047022042
:10154000704702207047022070470720704707202D
:10155000704700BF00400E4010B50446FFF778FF0B
:101560001C4B9C4212D01C4B9C4215D01B4B9C42E6
:1015700006D0013803282BD8DFE800F014171D1A15
:10158000174BD3F8800000F00700F2E7144BD3F8B4
:10159000840000F00700ECE7114BD3F8880000F05E
:1015A0000700E6E7FFF75AFB13E0FFF75DFB10E0EB
:1015B000FFF757FB0DE0FFF7EDFA094BD3F80031C9
:1015C000C3F300635A1C01239340B0FBF3F000E027
:1015D000002010BD030020000500240002001E00B2
:1015E00000400E4008B50748FFF732FF072804D037
:1015F000092805D1FFF7CEFA08BDFFF7FFFDFBE78D
:101600000020F9E706000E0008B10020704710B571
:1016100004460A48FFF71CFF072805D0082809D010
:10162000042804D0204601E0FFF7E8FD10BDFFF7D5
:10163000EFFAFBE7FFF718FEF8E700BFB80032004B
:1016400038B500F47813B3F5A01F78D0054618D943
:10165000B3F5001F00F0878034D9B3F5381F78D078
:1016600046D9B3F5481F00F09580B3F5781F13D124
:10167000FFF790FA04462846FFF7E4FEB4FBF0F0CB
:101680003FE0B3F5202F48D008D8B3F5003F47D04E
:10169000B3F5802F36D093B3002032E0B3F5602F3E
:1016A00072D0B3F5801F72D0B3F5402FF4D1FFF79D
:1016B00071FA3A4BD3F81431C3F304230133B0FB6E
:1016C000F3F01EE0B3F5D01F51D0B3F5F01F32D0C8
:1016D000B3F5B01FE0D13248FFF73EFF2F4BD3F8F0
:1016E000202102F00F0201239340B0FBF3F008E049
:1016F000B3F5101FD0D12B48FFF72EFF01E0FFF705
:1017000049FA38BDFFF746FA244BD3F80C31C3F33E
:1017100008230133B0FBF3F0F3E7FFF73BFAF0E700
:10172000FFF738FA1D4BD3F80831C3F30823013310
:10173000B0FBF3F0E5E71A48FFF70EFFE1E71948C1
:10174000FFF70AFF154BD3F8303103F00303D840FD
:10175000D7E71348FFF700FF104BD3F82031C3F34E
:101760000113D840CDE71048FFF7F6FEC9E70E4851
:10177000FFF7F2FE094BD3F82821C2F3011201232F
:101780009340B0FBF3F0BCE7FFF72CFFB9E7FFF79E
:1017900035FDB6E70020FFF737FFB2E700400E4007
:1017A00002001E000500240003002000014B186801
:1017B000704700BF4C110020014B1880704700BFDC
:1017C0005C1100200138032818D8DFE800F002116E
:1017D000070C0B4B186AC0F308007047084B1869D8
:1017E00000F07F007047064B986900F07F0070475B
:1017F000034BD3F89C00C0F30A00704700207047E9
:1018000000400E4038B50138032811D8DFE800F059
:10181000022B111EC1F308011D4B1B68002BFBD1CD
:101820001C4A136A23F4FF7323F001031943116266
:1018300038BD01F07F01184B1B68002BFBD1154A06
:10184000136923F07F0319431161F1E701F07F0170
:10185000124B1B68002BFBD10E4A936923F07F03C8
:1018600019439161E4E70C460A4DD5F890306B6A54
:1018700023F0300343F010036B62C1F3C310FFF792
:10188000EDFC2B6B06491940214301432963CFE747
:101890006828C84300400E406028C8436428C843F5
:1018A00000F8FF0F124B5B6A13F0300F09D02029AC
:1018B00004D0302916D0A9B10E4A04E04FF400023A
:1018C00001E04FF440020A4BD3F8903032EA0303B0
:1018D000F9D112F4800F08D0054BD3F8A000C0F363
:1018E000802070474FF44002EDE70120704700BFB1
:1018F00000400E40FF33E13F02280DD110B529B161
:10190000064B4FF48064C3F8A84059660AB9012019
:1019100010BDFFF7C7FFFBE70120704700400E40F6
:10192000F8B504287FD8DFE800F0120D190308008D
:10193000022301260024354614E020231026042427
:1019400005250FE080234026062407250AE04FF4F2
:1019500000734FF480760824092503E00823042649
:101960000224032500294DD0022830D000212E4B1F
:101970001E662E4B23449B001B68002BF9D0002AC7
:1019800051D02A4C2C44A4002368002BF9D0022803
:1019900049D1002947D0244B5B6A13F0010F2CD0AA
:1019A00001222021FFF7A8FF0220FFF70BFF0546C9
:1019B000012200210220FFF7B3FF29460220FFF792
:1019C00021FF194B1E662368002BFCD02BE0164B21
:1019D0005B6A13F0300F0ED1154BDB6B124B5B6A59
:1019E00013F0010FC3D0104F7B6A23F0300343F094
:1019F00010037B62BBE70021B9E700210220FFF75B
:101A000051FFD1E708490B66074BD3F8901001232B
:101A1000A3401942F8D132B1034BD3F890200123EF
:101A2000AB401A42F8D1F8BD00400E408004F210DD
:101A300000300E4070B504460D4611280CD000262B
:101A400004F00F04013C072C00F29880DFE804F05A
:101A50001E701C966E9796A3042903D005290BD0FF
:101A60000026EDE7FFF7D4F80646002EE8D0002167
:101A7000304600F089FAE3E7FFF798FE06465F4B31
:101A80009842F2D80026DBE75D4C52E0023D0A2D79
:101A900074D8DFE805F00615090F737373737318B4
:101AA00049000020042410E05648FFF785FB02207F
:101AB00004460AE05348FFF77FFB0320012404E0BB
:101AC0000120032401E00320052401221146FFF731
:101AD00027FFFFF7D7FB46B14B4B1B6813F0400FB6
:101AE00003D14A4B1B68002BFBD1494B5C67FFF7C6
:101AF0007DF80446FFF74EF8FFF75EFB424B1B688C
:101B000013F0400F03D1414B1B68002BFBD1414B1D
:101B10005968C1F301412046FFF7C6FB76BB01219E
:101B2000002000F031FA29E00724D2E73A4C00E027
:101B30003A4C013D092D21D8DFE805F005070E20BC
:101B400020152020201E002317E00122114600202E
:101B5000FFF7E6FE022310E0012211461046FFF7D0
:101B6000DFFE012309E0FFF715F8FFF725FB2C4BFB
:101B700001221A60032300E00423236070BD072DB7
:101B800005D0092DFAD1224B01221A67F6E7204B26
:101B900000221A67F2E7013D072DEFD801A353F8A1
:101BA00025F000BFC51B00007D1B00007D1B000051
:101BB000D71B00007D1B00007D1B0000C91B00001F
:101BC000E51B000000210EE0012211460420FFF772
:101BD000A7FE012107E0012211460220FFF7A0FE27
:101BE000022100E003210A4AD2F85C3123F03003DD
:101BF00043EA0113C2F85C31C0E700BF002D310198
:101C000084400E400148E8013C300E40C800C64305
:101C100000400E4000300E4088400E4080400E4094
:101C20000016C84370B504461120FFF711FC0122CD
:101C300000210220FFF774FE237C022B29D0002212
:101C4000154E736A23F00103134373622278134B1A
:101C50001A60A288637A43EAC223F362356B05F007
:101C60007F65E08845EAC025A07A0543207A45EAE9
:101C7000C015FFF7F3FA28433063627BA37B1B0197
:101C800043EA0233E27B1343227B43EA024373635A
:101C900070BD0122D4E700BF00400E40A004C8433D
:101CA00038B505461120FFF7D3FB0D4A916B0D4B5C
:101CB0000B402C781C436B7844EAC324AB7844EA8D
:101CC0000364EB7844EA0324936BA34206D0012219
:101CD00000210846FFF724FE014B9C6338BD00BF7E
:101CE00000400E4080E4FFF8EFF3108072B67047BA
:101CF00000B962B67047EFF3108072B6704700B952
:101D000062B67047034B5868C0F30800003018BF34
:101D10000120704700ED00E01A48C26CC2F30322B4
:101D2000194B1B8803F1280103EB510328330132BF
:101D300002EB8201B3FBF1F3013B072B28BF072322
:101D4000C16C21F0EE6141EA036343F48013C36484
:101D50000E4BB3F90030002B13DB9BB203F12801CB
:101D600003EB51032833510801EB4202B3FBF2F3BA
:101D7000072B28BF0723026D22F0700242EA0313EB
:101D80000365704700300E40862D0020882D00200E
:101D9000024B1880024B1980704700BF862D00202F
:101DA000882D002010B1012804D07047034B044A4D
:101DB0009A657047014B034A9A65704700300E40A0
:101DC00077402057372110B71A4BD3F880310329B9
:101DD00029D8DFE801F002121518DBB24AB91B035B
:101DE00033F4704121D11448C16E21F4704119437C
:101DF000C166012A09D001207047C3F30723EDE72C
:101E0000C3F30743EAE71B0EE8E71B0333F4704212
:101E10000DD10949D1F8EC2022F470421343C1F8E6
:101E2000EC300120704700207047002070470020F0
:101E3000704700BFB081E00F00300E401B02DAB1E6
:101E40000122134340F20112934237D0B3F5817F50
:101E500014D340F20122934237D01CD9B3F5407F0E
:101E600041D040F20132934244D1244BD3F878312F
:101E70001A0EC3F307431EE00022E2E7012B14D041
:101E800053B3B3F5807F35D11C4BD3F86C311A0EA8
:101E9000C3F307430FE0B3F5007F2BD1174BD3F803
:101EA0007031C3F30722DBB205E0144BD3F8743171
:101EB000C3F30722DBB203600A6070470F4BD3F80D
:101EC00074311A0EC3F30743F5E70C4BD3F878319E
:101ED000C3F30722DBB2EEE7084BD3F86C31C3F350
:101EE0000722DBB2E7E7054BD3F870311A0EC3F3D4
:101EF0000743E0E700221346DDE700BFB081E00FB3
:101F00001D4B1B6813F0400F34D11B4B1B6813F0A3
:101F1000400F03D1194B1B68002BFBD1184B5B689A
:101F2000C3F30143984225D070B50D460446154BC6
:101F3000D3F80031FEF72EFE0646022C11D0C4F174
:101F40000202102393400E4A136145B10A4B1B68ED
:101F500013F0400F03D1094B1B68002BFBD124B1B8
:101F600070BD0221FFF7A0F9E9E700213046FFF735
:101F70009BF9F5E7704700BF3C300E40C800C643F0
:101F800000300E4000400E4038B5114B1B6813F076
:101F9000400F0BD10D4650B10E4B1B7813B10E4BB9
:101FA00098420FD929460020FFF7AAFF38BD0B4BF6
:101FB000D3F80001C0F30420441CFEF7EBFD04FB42
:101FC00000F0E9E729460220FFF79AFFEEE700BF9D
:101FD0003C300E408C2D0020002D310100400E4081
:101FE000134B9A6922F03F020378D3B1042341785E
:101FF000C9B102210B438178B9B108210B43C178E3
:10200000012900D000210B4301790B431343084AF7
:102010009361136823F44033417943EA0143136029
:1020200070470023E3E70021E4E70021E6E700BF73
:1020300000300E4010B42B4B5A6B4AF6E8515963EE
:10204000284B9B6F13F0010FFAD1264B1B6C13F03A
:10205000030302D0244901240C60D9B2814220D06C
:10206000032B00D01BB9431EDBB2012B1FD91D4B24
:102070009B6F13F0010FFAD11A490B6C23F0030385
:1020800003430B64174B9B6F13F0010FFAD1003021
:1020900018BF0120144B1860012A1ED05DF8044BB4
:1020A00070470028FAD1104B00221A60F6E70D4B5A
:1020B0004FF40021D9620B4B9B6F13F0010FFAD143
:1020C00008490B6C23F0030343F001030B64054B39
:1020D0005B6A13F4002FFAD0C9E7024B00225A635F
:1020E000DCE700BF00300E40B40AC6432DE9F04FD4
:1020F00089B00023059306930793029303930493F7
:10210000A0F5E163B3F5966F00F2A580B0F5E16F3D
:102110008CBF4FF001094FF0000965D94FF4966A62
:102120004FF4E165B0F5E16F63D9534BD3F86831F3
:102130001C0E0494C3F307430793019200910446D5
:102140004E4EF76CC7F301773B464A4602A905A8F5
:10215000FFF774FED6F8EC30C3F3012843464A4635
:1021600003A906A8FFF76AFE651B0799049B5B1A83
:1021700003FB05F3B3FBFAF30B44DDF808B0DDF81D
:1021800014C0ABEB0C0606FB05F6B6FBFAF666448C
:10219000DDF80CE00698AEEB000202FB05F5B5FB9E
:1021A000FAF50544049A9A425AD399425AD8AE4550
:1021B0005AD3A8425AD8B3455AD3B4455AD8019AEB
:1021C00072B12E4AD26D22F4FE4222F0020242EA9D
:1021D0000323B4F5E16F15D902221343274AD365CF
:1021E000009B8BB9012337E04FF4167A4FF49665C4
:1021F00098E7214BD3F86831C3F307240494DBB28A
:1022000007939AE70022E8E7002239464846FFF79D
:10221000DBFD034600B3012241464846FFF7D4FDEB
:102220000346C8B13246AE4238BF2A46E72A28BF25
:10223000E7221249496E21F4FF7121F0010141EAC0
:102240004202B4F5E16F04D901210A430B494A6601
:1022500002E00021F9E70023184609B0BDE8F08F3D
:102260000023F9E70023F7E70023F5E70023F3E76E
:102270000023F1E70023EFE7B081E00F00300E40CC
:1022800008B5224A136F03F00703D26C12F0010F56
:1022900008D0012B06D9132821D91438132820D8A7
:1022A000082325E0194AD26C12F0010F01D1012B4D
:1022B00008D9164AD26C12F0010F18D0012B08D998
:1022C000002315E009280ED90A3809280DD808235B
:1022D0000EE0272801D910230AE0082308E0042390
:1022E00006E0102304E0042302E0102300E00023B2
:1022F000013B1A0342EA03220449CB6C23F47F43D7
:102300001343CB64FFF708FD08BD00BF00300E404B
:1023100008B5064B1B68064A136F23F007031843E2
:102320001067044B1888FFF7ABFF08BD8009C64350
:1023300000300E40842D002008B5084AD36E43F0CB
:102340008073D366064B1B681BB90020FFF7E0FFC4
:1023500008BD0420FFF7DCFFFAE700BF00300E40A5
:102360008009C64338B50446B0F90C10C3884A2B1F
:1023700009D9B3F5FA7F33D340F6C312934232D86A
:102380004FF0005200E00022224BDB6C23F0405360
:1023900023F00103002929DB01210A4313431D4ACD
:1023A000D364D2F8EC3043F44073C2F8EC30A28826
:1023B000194B1A80FFF7C0FFB4F90C102089FFF702
:1023C000E7FCA088FFF75CFFA07BFFF7EBFC012296
:1023D00011466088FFF78AFE054648B9284638BD91
:1023E0004FF08052D0E74FF04052CDE70021D4E7C4
:1023F000084AD36B43F48063D3636078FFF71AFE17
:10240000A37A202B03D00022044B1A60E6E70122B6
:10241000FAE700BF00300E40842D00209407C64329
:1024200070B4072A2BD895000F24AC40A8401F4D4C
:102430002C601F4C20600024072A2BD9A400032005
:10244000A04001F00301A1401A4C20601A4801602D
:102450001A49114489000B60194B13449B009DF8E5
:102460000C101960012393401649C1F82434164B0F
:1024700013449B009DF810201A6070BC7047A2F1B5
:102480000804A6000F25B540B040104E3560104D31
:102490002860D1E794000320A04001F00301A1408F
:1024A0000C4C20600C480160D2E700BF00A400443F
:1024B00000A400460CA400440CA400468020851013
:1024C000A020851000A000404021851004A40044F5
:1024D00004A4004608A4004408A40046F0B414462E
:1024E0003AB143B300EB4002160101258D40264A64
:1024F0009551072927D8254E45002F183A01324417
:1025000052688F004FF00F0C0CFA07FC22EA0C0205
:1025100004FA07F73A4305442F013E44726044B978
:102520004BBB00EB40000201012303FA01F1184B01
:102530009950F0BC704700EB4002160101258D4018
:10254000134A9551D5E7114F460035182A013A44F0
:10255000956801F18042083A92004FF00F0C0CFA96
:1025600002FC25EA0C0504FA02F22A4335182E0172
:102570003744BA60D3E700EB40000201012303FABD
:1025800001F1014B9950D4E70CA0004600A0004097
:102590000CA0004410B5044601214FF48A40FEF718
:1025A00093FE23786178A27842EA012242EA03622C
:1025B0000B4B1A6000221A62DA625A634FF0004233
:1025C000DA664FF0FF329A66064A4FF40071C2F89D
:1025D0008011E3785B01DBB282F80933116010BD32
:1025E00000200E4000E100E0F8B50C46C3B2012522
:1025F0009D400B68254E470007EB000C4FEA0C117D
:102600003144C1F88030637BC1F8883094F80AC047
:10261000E37A1B0543EA0C4394F80CC043EA4C539D
:10262000C1F8843022F00302C1F89820B566FFF7A4
:1026300062FBF36E2B43F366237A13B1736B2B4368
:102640007363637A1BB1114AD36A2B43D3620F4B76
:102650001B68227922B1D243120262F47F421340F6
:1026600062790AB143EA0223A2791AB1D24362F035
:10267000FF021340E27902B11343044A1360044B92
:102680001D60D563FFF73BFBF8BD00BF00200E4087
:1026900028200E4410B5C0B201248440FFF72BFB64
:1026A000084B1B6A234206D1064B9B6A34EA03039C
:1026B00006D0002400E00024FFF721FB204610BDD7
:1026C0000124F9E700200E4010B44A790B784C78C9
:1026D00043EA84038C7843EA8413CC7843EA0413F6
:1026E0000C7943EAC42343EA02338A7943EA42433A
:1026F00004300001024A13505DF8044B704700BFDC
:1027000000200440014B1860704700BF0000844265
:1027100003780BB30123427802B304221343827877
:10272000F2B110221343C278E2B12022134302799E
:1027300043EA0223427943EA02338279A2B14FF499
:1027400000421343C27943EA0243027A72B900227B
:102750001343084A136070470023DCE70022DDE7DB
:102760000022DFE70022E1E70022EAE74FF400322F
:10277000EEE700BF002004400B4A53699B0003F0C2
:102780003C031169C1F381110B438370136903F09A
:102790003F034370936903F0F003D269C2F303125D
:1027A00013430370704700BFD0FF0FE041F080017A
:1027B0008165704770B5054616461C46084641B10E
:1027C000202C22D009D9402C1DD0602C1AD10422F3
:1027D00005E00F48FEF734FFF2E79CB9102206FB34
:1027E00002F2530803EB4010B0FBF2F02038094B23
:1027F00003EAC0002B6823F060032B602B681C43A6
:102800002C60686170BD0622E9E70822E7E700BF97
:1028100040410500F8FF7F0038B5054614460846DC
:1028200031B101386400B0FBF4F00002686138BDDA
:102830000148FEF705FFF4E740410500CB435B008C
:1028400003F00A03C360C1607047000040F6AA634A
:10285000C3600023036041F205024260836043616C
:10286000C3640D4A8264036643678367C3670B4B87
:10287000984203D003F58063984201D10023036599
:102880000023836503F1804303F58233984200D02F
:1028900070470023C365FBE7F9FF0100000001401A
:1028A00038B505460C46FFF7D1FFA37C1BB12B685A
:1028B00043F080432B60E37C33BB637B228A13436A
:1028C000E28913436B60237BA26861682846FFF7A7
:1028D00071FF637D1BB12B6843F480332B60A37DB4
:1028E0001B0703F0E043E27D120502F4E00213430C
:1028F0002B666B6F23F030036B676B6F227E134385
:102900006B672378EB6038BD217D2846FFF74EFFCB
:10291000D3E738B505460C46FFF798FF2A68238AA7
:1029200043F00103A17B00292DD04FF480610B43BC
:1029300013432B602B68227D3AB34FF000521343B0
:102940002B60A37C1BBB237B43F480536B60A2688A
:1029500061682846FFF760FF637B0BB11023EB60D3
:10296000637D1BB12B6843F480332B60A37D1B0771
:1029700003F0E043E27D120502F4E00213432B660C
:102980002378EB6038BD0021D1E70022D7E7E17C56
:102990002846FFF70BFFD6E7036913F0800FFBD043
:1029A000C069C0B27047036913F0400FFBD04163A8
:1029B000036913F0200FFBD0C069C0B270470369F0
:1029C00013F0400FFBD0416370470000F0B4059E48
:1029D000154602B904259D4238BF1D4684686A42E7
:1029E00022406F1E274000D02F463A4411445D42DA
:1029F0000D405F1E394000D01946294443681B1B17
:102A000001330C1BA3420CD38160002333700C4BA9
:102A100073604FF4E563B3600A4BF3601046F0BC9B
:102A20007047049A0AB1E41A146016233370044BF9
:102A3000736040F22273B360024BF3600020EEE754
:102A40002C0A0100BC0A01002DE9F04182B00A9C69
:102A50004AB9082323701F4B63604FF4D963A36006
:102A60001D4BE360FEE7174613B15A1E1A420AD007
:102A70004BB108232370174B636040F2CC63A36013
:102A8000154BE360FEE71D460E46FFF734F980461E
:102A90000194099B0093089B2A4639463046FFF76C
:102AA00095FF0546237833B94046FFF728F92846B5
:102AB00002B0BDE8F0814046FFF721F916232370EC
:102AC000044B636040F2D763A360034BE3600025CF
:102AD000EDE700BF2C0A0100A40A0100F0B585B0A3
:102AE00005460C4616461F466BB17CB10297002383
:102AF0000193012300930423324621462846FFF721
:102B0000A3FF05B0F0BD00F013F8EEE7004CEDE7D1
:102B10006011002008B5034B00221A6002F066FC29
:102B200008BD00BF8C5E002008B5FFF7F3FF08BDAD
:102B3000FEE70000014B1860704700BF8C5E00206C
:102B400000B585B0684600F00DF905B05DF804FBEE
:102B500000B585B0684600F005F805B05DF804FBE7
:102B60007047000010B5044668B1224B1B78012B5A
:102B70000CD013232370204B636040F2DD33A3603D
:102B80001E4BE360FEE7FFF7D3FFEEE71C4B1B880D
:102B9000012B0CD91B4B1B789BB11F232370164BA9
:102BA000636040F2EB33A360144BE360FEE709235C
:102BB0002370114B63604FF47A73A3600F4BE36093
:102BC000FEE701F0CBF9104B1870104B18700C2376
:102BD00003FB00F30E4AD3580E4A13600E4A1360EB
:102BE000084B01221A7001F0CDFC02F02BFCFFF71C
:102BF0009FFF10BDCC6100201C0B0100AC0B01003D
:102C0000F2610020C95E0020D0610020D861002060
:102C1000CC5E0020E4610020DC61002030B142681D
:102C2000C1F8E8208268D268C261704791F83030FC
:102C3000022B05D0072B07D0054BC1F8E8307047B1
:102C4000044BC1F8E8307047034BC1F8E8307047D7
:102C50002C050100900B0100980B0100054BC1F8F9
:102C6000E83030B1826812B1D268C2617047014A5F
:102C7000C26170472C05010000230360436003819B
:102C8000704710B491F8334003684BB102890132A8
:102C900002816BB193F83320A24209D85B6AF8E74E
:102CA0000123038100234B628B620160416007E0D6
:102CB0004BB19A6A6AB14B629A6A8A6251629962AE
:102CC0005DF8044B70474B6243688B625962416008
:102CD000F6E74B628A6299620160F1E7C36A7BB1F1
:102CE0009A68526A6AB1826A72B1416A89B1516264
:102CF0008A621A8A013A1A82002343628362C3629B
:102D000070479A60DA60F4E7426A002191629A6043
:102D1000EFE75162DA60ECE770B5C56AAB685B6AF1
:102D20004BB105F108060446FFF7D8FFE5622146DE
:102D30003046FFF7A6FF70BD00233F2B0FD810B41D
:102D4000074C5A001A449100601800220281625018
:102D5000426001333F2BF3D95DF8044B7047704755
:102D6000CC5E002038B5044600286ED08E4B5A68E1
:102D70009AB11B68002B6BD08C4A13608B4B1A687E
:102D80008B4B1A60884B5B688A4A13609B008A4AA7
:102D900013608A490A6813440B60834B1A89002A1E
:102DA00063D1814B5A6912B31B69002B76D0844AD8
:102DB00013607D4B197E834A1170D969824A116074
:102DC0007F4A1168814A11605A69DB6803FB02F38C
:102DD0007F49A1FB03135B097E490B607E4B1A60A0
:102DE00092007E4B1A6075490B681A440A606E4B5C
:102DF0005A6B7B4B1A6002F0CDFB04F049FE0028B1
:102E00005AD1774B1A68B2F57A7F5FD8754B4FF07D
:102E1000FF321A6004F036FF4FF0FF33B3FBF0F0DF
:102E20006F4D2B6803FB00F36F4A136004F02AFF19
:102E30002B68984255D2092323706C4B63604FF482
:102E4000DD73A3606A4BE360FEE7FFF771FE8DE779
:102E5000234692005449096B6648FFF73FFE534BE7
:102E600018602378002B89D02FE0234612014E49A9
:102E7000096B6148FFF732FE604B1860237823BB73
:102E80005F4B1860484B1B895E4A13801B015E4AEA
:102E900013604A490A6813440B6082E72346920094
:102EA0004149096B5948FFF719FE454B18602378D3
:102EB000002B3FF47EAF08E0012323704B4B63608F
:102EC0004FF4D773A3604A4BE36038BD4FF0FF3334
:102ED000B3FBF2F24FF47A7303FB02F3414A13603F
:102EE00098E700234A4A13704A4A13704A4A13600B
:102EF0004A4A13604A4A13704A4A13704A4A137086
:102F0000204602F0CFF80A23B0FBF3F3474A1360E0
:102F10002378002BD9D1274B1B681BB1244A126898
:102F2000002A38D10025424B1D7001F00BF8FFF745
:102F300003FF404B1D60404B1D80324B1B882BB163
:102F4000204600F0F3FC2378002BBED100233B4A3F
:102F500013603B4A13803B4A13603B4A13803B4A51
:102F600013603B4A1380204601F06AFD2378002B52
:102F7000ABD1204601F0D2FA2378002BA5D100F086
:102F80008FFBFFF7EDFD334B01221A709DE7013BEC
:102F9000002142F8041B002BF9D1064B1968044BA1
:102FA000186801F0F1FDBDE774110020985E002063
:102FB000942D0020982D00209C2D0020902D002085
:102FC000905E0020AC2D0020B02D0020B42D0020FC
:102FD0001F85EB51B82D0020BC2D0020C02D0020F6
:102FE000C42D0020C82D0020CC2D00201C0B01007A
:102FF000A40B0100D80A0100EC0A0100945E002035
:10300000A02D0020A42D0020A82D0020000B0100E1
:10301000C95E0020C05E0020DC610020E461002069
:10302000D8610020D06100200863002008620020E1
:10303000C85E002014620020106200200C63002093
:103040001A62002000620020E0610020D4610020AC
:1030500004620020CC610020F0B490F8333003EB20
:1030600043018A0011498E588EB110495A00D51873
:10307000AC000F193D8901353D8106610025456190
:103080000C59606113449A008850F0BC70470A469E
:103090005900CD18AC00151901262E8100250561B7
:1030A0004561105122445060EFE700BFCC5E002024
:1030B00070B490F8333003EB43018A0011498A5809
:1030C00092B1104C5900CD18AA002244158901353F
:1030D0001581002505615268426110610B449A0018
:1030E0001444606070BC70470A465900CD18AC00AB
:1030F000151901262E8100250561456110512244D4
:103100005060EFE7CC5E002010B5044690F8330025
:1031100000F036FF94F83320054B1B789A4203D019
:103120002046FFF799FF10BD2046FFF7C1FFFAE7E1
:10313000D861002038B505460C4691F832100529B3
:103140001FD804291CD201291AD96267A4F8783043
:10315000049B636410B12046FFF7C0FD214628465A
:10316000FFF77CFD94F83230032B2BD02046FFF77D
:10317000CBFF002384F8323084F8313084F83030CB
:1031800038BD072919D86267A4F87830049B6364B6
:1031900010B12046FFF7A2FD21462846FFF75EFD4D
:1031A00094F83230072B16D0042384F832300023F1
:1031B00084F8313084F83030E2E7FF29E0D0FFF7BF
:1031C000B7FCDDE704F1540004F09AFC0028CDD0F0
:1031D000FFF7AEFCCAE704F1540004F091FC0028AC
:1031E000E2D0FFF7A5FCDFE703684268934215D001
:1031F00019698A420AD010B400244C611C615A61DA
:103200001361016043605DF8044B70475A6100210F
:10321000196151611361026043607047704700009B
:10322000574B1B78012B00D0FEE7564B1B7803B1A0
:10323000704770B582B0FEF75EFD0546524C2678A9
:1032400000F08CFE2070402800F081800C2303FBEE
:1032500000F34E4AD2584E4B1A60402E03D101F073
:1032600099FAAFF300804B4B1B7813B34A4B1B68A2
:103270001B6FF3B101A9494804F0B6FC30B9464BC5
:103280001B68019A1A67454804F03AFC424B1B68D8
:103290001A6F72B993F833000C243C4E04FB0060A3
:1032A000FFF7A2FF384B1B7804FB03F43259384B6D
:1032B0001A60374B1B683A4A126893420DD10020BE
:1032C00001F04AFC012803D0354B186802F080F960
:1032D0002846FEF714FD02B070BDD3F8BC200132C1
:1032E000C3F8BC202F4A136801331360264B1B78A8
:1032F000402B39D02A4B1B68254A1268934218D0BC
:10330000BBB102F08DF8264B1B68D3F8C43098424D
:1033100021D302F085F8224B1B68D3F8C430C01AC1
:103320001F4B1B68C3F8C000D3F8C8200244C3F881
:10333000C820174B1C6802F073F8C4F8C40002F0F0
:10334000C0F82846FEF7DBFCBFF36F8FC3E7104BD6
:1033500000221A60C6E702F063F8114B1B68D3F82D
:10336000C430C01A0138DBE701F00CFA0C4B1C68C2
:1033700002F056F8C4F8C400AFF30080DFE700BFE6
:10338000C95E0020C05E0020D0610020CC5E00201D
:10339000E461002008630020B45E00209C5E0020F1
:1033A000DC610020EC61002070B50C46FEF7A3FC48
:1033B000054694F83230013B062B50D8DFE803F085
:1033C000494F044F554F040094F83030042B32D04D
:1033D000002600236367A4F8783002F021F86064C7
:1033E0002046FFF77BFC94F83230032B26D0072BC6
:1033F0002BD0032384F83130002384F8303076B3A7
:1034000096F8333096F83420934228D094F833203D
:10341000934224D1304600F071FC96F8341081427A
:1034200028BF0146C9B296F833308B4217D03046D8
:1034300001F0EAFC13E0E36A5E6ACAE72046FFF7A0
:1034400063FE002384F83230D3E7042384F832305B
:10345000CFE7002384F832302046FFF755FE284698
:10346000FEF74DFCFFF7DCFE70BD042384F832301C
:10347000F5E7000038B50E4B1B78012B00D038BDA6
:103480000C46FEF738FC054600232367094B1B68F2
:1034900093F8333003EB43039A0007481044FFF7D7
:1034A000A3FE2846FEF72BFCFFF7BAFEE7E700BFB6
:1034B00008630020B45E0020CC5E002070B5044696
:1034C00090F833304569026975B158001844860098
:1034D000154931440889013808812A610AB35561C8
:1034E00000236361236170BD6AB10F4E5900CD188E
:1034F000A80030440589013D0581002050610B443E
:1035000099007250ECE7084A5900C818850056190E
:10351000002030815051706094F8330000F048FD75
:10352000DEE74D60DCE700BFCC5E0020A0B110B547
:1035300082B00446094A1278012A01D002B010BDB7
:10354000016F0023019300930346054A054804F0E8
:1035500027FB054B1C60F1E7704700BF08630020A4
:10356000753400009C5E0020B45E002040B3F8B5C6
:103570000446144B1B78012B00D0F8BDC56E75B105
:1035800004F080FB104B1A68561E00270023E0FB56
:103590000567304639460BF07BFB2067EDE70B4BA8
:1035A0001D6804F06FFB084B1A68561E00270023A5
:1035B000E0FB0567304639460BF06AFB2067DCE725
:1035C000704700BF08630020C42D0020086200205F
:1035D0002DE9704883B0044641B9022380F83230A7
:1035E0002046FFF76BFF03B0BDE870880D4600264C
:1035F00004F048FB0E4B1A68002393469C46E0FB00
:1036000005BC1BF1FF304CF1FF310BF041FB019683
:1036100000962346074A014604F1540004F0C0FA1C
:1036200018B9032384F83230DAE7FFF781FAF8E7B4
:10363000C42D0020A933000038B504461546144BAC
:103640001B6883F83010002283F83120114B1B785F
:103650007BB929460E4B1868FFF7BAFF84B90C4BAB
:103660001B680022DA620A4B19682046FFF7D6FA77
:1036700038BD094B1B681A67084804F041FAE8E7AF
:10368000034B1968CC6204F10800FFF7FAFAEAE785
:10369000DC61002008630020B45E00209C5E0020F6
:1036A00082B0754B1B78DBB28DF80730734B1B680B
:1036B000DBB28DF80530724B1B78DBB28DF807302A
:1036C000704B1B78DBB28DF807306F4B1B68DBB299
:1036D0008DF805306D4B1B6ADBB28DF805306C4BF5
:1036E0001B78DBB28DF807306A4B1B78DBB28DF8A4
:1036F0000730694B1B88DBB28DF80630674B1B889F
:10370000DBB28DF80630664B1B78DBB28DF80730E4
:10371000644B1B88DBB28DF80630634B1B88DBB231
:103720008DF80630614B1B88DBB28DF80630604B9C
:1037300093F82830DBB28DF805305E4B1B78DBB296
:103740008DF807305C4B1B88DBB28DF806305B4B85
:103750001B88DBB28DF80630594B1B88DBB28DF825
:103760000630584B1B88DBB28DF80630564B1B8851
:10377000DBB28DF80630554B1B88DBB28DF8063076
:10378000534B5B8DDBB28DF80530524B1B78DBB2AF
:103790008DF80730504B1B88DBB28DF806304F4B4D
:1037A0001B78DBB28DF806304D4B1B6ADBB28DF80F
:1037B00005304C4B1B78DBB28DF807304A4B1B8829
:1037C000DBB28DF80630494B1B88DBB28DF8063032
:1037D000474B1B68DBB28DF80530464B1B78DBB2DC
:1037E0008DF80630444B1B78DBB28DF80730434B25
:1037F0001B78DBB28DF80730414B1B78DBB28DF8BC
:103800000730404B1B78DBB28DF807303E4B1B78FE
:10381000DBB28DF807303D4B1B78DBB28DF80730FB
:103820003B4B1B88DBB28DF806303A4B1B78DBB282
:103830008DF80730384B1B88DBB28DF80630374BDC
:103840001B88DBB28DF80630354B1B78DBB28DF868
:103850000730344B1B88DBB28DF80630324B1B88A7
:10386000DBB28DF806309DF807309DF806309DF8E4
:10387000053002B0704700BFB4110020B011002025
:10388000AC110020D02D0020B8110020D42D002034
:10389000BC110020FC2D0020BE110020C011002012
:1038A000C2110020C8110020C4110020C611002040
:1038B000002E0020CA110020CC110020CE110020C3
:1038C000D0110020D2110020D4110020D6110020E8
:1038D000302E0020D8110020DA110020E411002041
:1038E000602E0020E5110020E6110020DC110020F0
:1038F000E0110020EA110020E8110020E911002069
:10390000EE110020EF110020F1110020F011002035
:10391000F2110020F4110020EC110020F61100201B
:10392000882E00208A2E0020F811002030B4164B7B
:103930001B6803F11004154A1588013DADB2002241
:1039400008E01C60002159601981D96010331034DF
:10395000013292B2AA42F4D300221A605A601A814C
:10396000DA600B4B08490968196008490988998091
:10397000DA801A810270074B43605D238360064B37
:10398000C36030BC704700BFA02D0020A42D0020D4
:10399000F4610020B40B0100280C010003464089AB
:1039A000A8B110B419680A4A14680C60596811600B
:1039B0005989D488641AD480948821449180002243
:1039C0005A819A811A605A605DF8044B70477047BB
:1039D000F46100200023036043608360C3600181C1
:1039E00070470000064BC36100234361054B1B6811
:1039F00023B183615861034B186070478361FAE714
:103A00002C0501000C630020F8B505460F4614464E
:103A10005AB1FEF777F958B1202323701A4B63602F
:103A20005223A360194BE360FEE7FFF781F8F0E74C
:103A300045B90A232370144B63605523A360134BCD
:103A4000E360FEE7FEF757F90646302200212846DC
:103A50000BF030FB0E4B2B606F6005F10800FFF799
:103A60000BF92846FFF7BEFF0A4A1388013313807B
:103A70003046FEF744F900232370034B63606C2348
:103A8000A360024BE360F8BD380C0100AC0C0100F0
:103A90004D5554581A620020836B0B628163704746
:103AA0002DE9F8430646894690461D46089C64B1B8
:103AB000FEF728F960B120232370854B636040F244
:103AC0002D13A360834BE360FEE7FFF731F8EFE7C8
:103AD000814B1B78012B09D0022323707C4B636040
:103AE0004FF49873A3607B4BE360FEE74EB90A2363
:103AF0002370774B636040F23313A360754BE36030
:103B0000FEE7B8F1000F0CD0B8F5004F09D008233C
:103B100023706F4B636040F23713A3606D4BE3601B
:103B2000FEE732686D4B9A4209D00C232370684B34
:103B300063604FF49D73A360664BE360FEE7FEF79E
:103B4000DAF8074696F82830DBB9654B1B687362D4
:103B5000012386F828300DB1F36A2B603146604BA3
:103B60001868FFF799FF3846FEF7C9F8002323705D
:103B7000574B636040F24713A360564BE360BDE8C8
:103B8000F883706A564A1268904221D1FF2B0CD1FB
:103B90003846FEF7B4F81E2323704D4B63604FF494
:103BA000A873A3604B4BE360E9E7013386F8283044
:103BB0000DB1F36A2B603846FEF7A1F8232323707A
:103BC000434B63604FF4AE73A360424BE360D6E7B0
:103BD00018F4004F0FD03846FEF791F80DB10023CE
:103BE0002B601D2323703A4B636040F26913A3607E
:103BF000384BE360C3E73B4B1B787BB13846FEF79D
:103C00007EF80DB100232B602D232370304B6360B1
:103C100040F27513A3602F4BE360B0E790F83330A8
:103C200092F833108B4201D901F0EEF84A46042194
:103C30003046FFF701FD3846FEF761F8FFF7F0FA6E
:103C4000FEF759F80646264B1B6893F83120032AE5
:103C50003AD8DFE802F002122C1F0DB15B6C2B602A
:103C6000002323701A4B636040F29313A360194B37
:103C7000E3603046FEF743F881E70DB15B6C2B60E3
:103C800021232370124B636040F29D13A360114BFC
:103C9000E360EEE70DB100232B60222323700C4B71
:103CA000636040F2A713A3600A4BE360E1E70DB144
:103CB0005B6C2B6031232370054B636040F2B113C2
:103CC000A360044BE360D4E7FEF732FFD1E700BF07
:103CD000380C0100BC0C0100C95E00204D55545841
:103CE000DC610020C05E0020383001E003F12000DC
:103CF00003688B42FAD11B6A0360704700F13803F6
:103D00003F2000E020331B6843B19A68002AF9D0B5
:103D100092F833209042F5D91046F3E7704700003F
:103D20002DE9F04F83B005468846144662B1FDF791
:103D3000E9FF60B120232370664B636040F24523A6
:103D4000A360654BE360FEE7FEF7F2FEEFE7634B2F
:103D50001B78012B09D0022323705E4B63604FF464
:103D60001273A3605C4BE360FEE74DB90A23237036
:103D7000584B636040F24B23A360574BE360FEE770
:103D8000B8F1000F0CD0B8F5004F09D0082323700C
:103D9000504B636040F24F23A3604F4BE360FEE75C
:103DA0002A684F4B9A4209D00C232370494B636019
:103DB00040F25223A360484BE360FEE7FDF79BFF10
:103DC00007466A6A474B1B689A420DD0FDF797FF7A
:103DD0001B2323703F4B636040F25723A3603E4B8D
:103DE000E36003B0BDE8F08F01F01AFB8146E862A2
:103DF00095F82830013BDBB285F8283063B13846AE
:103E0000FDF77DFF23232370324B63604FF41A7359
:103E1000A360314BE360E4E72946324B1868FFF7B3
:103E200063FFAB687BB900266E6285F82860384670
:103E3000FDF765FF2670274B636040F27523A36092
:103E4000254BE360CDE7274BD3F800A09AF833B0B9
:103E50009AF83460B3451AD05046FFF74FFF8642B8
:103E600028BF0646F6B2B34511D25046FFF726FBEF
:103E7000DFF870A0DAF8003083F83360304600F0E5
:103E80007FF8DAF80000FFF713F9174B1E70AE68E1
:103E90006E62012385F8283029463046FFF7FCFD85
:103EA000CDF8009000231A4631462846FFF742F924
:103EB0003846FDF724FF18F4004F01D1FFF7B0F9A1
:103EC00000232370034B63604FF42673A360024BFF
:103ED000E36086E7380C0100C80C0100C95E0020D1
:103EE0004D555458DC610020D86100202DE9F04187
:103EF00082B08046846B04E0002384F8283063623B
:103F00003C46E4B1276A01F08BFA0646E06221469E
:103F10004046FFF7E9FEA568002DEDD0C4F82480E7
:103F2000012384F8283021462846FFF7B5FD009686
:103F300000231A4629462046FFF7FCF8E0E702B0C6
:103F4000BDE8F081002304E0034A002142F8231079
:103F50000133012BF8D97047B85E002008B5074B34
:103F6000186818B101F062FAC0B208BD586801F0D3
:103F70005DFAC0B22030C0B2F7E700BFB85E0020E3
:103F80001F2809D9C0F13F00012303FA00F0074AB6
:103F90005368034353607047C0F11F00012303FAC5
:103FA00000F0024A1368034313607047B85E0020B4
:103FB0001F280AD9C0F13F00012303FA00F0084A84
:103FC000536823EA000353607047C0F11F000123C8
:103FD00003FA00F0024A136823EA000313607047F3
:103FE000B85E00202DE9F04706468A4691461D46F8
:103FF000089C64B1FDF786FE60B1202323706B4BF3
:1040000063604FF48E73A360694BE360FEE7FEF7D5
:104010008FFDEFE7674B1B78012B09D0022323703C
:10402000624B636040F21F13A360614BE360FEE7E5
:104030004EB90A2323705D4B63604FF49173A36004
:104040005B4BE360FEE7B9F1000F0CD0B9F5004F10
:1040500009D008232370554B63604FF49373A3601A
:10406000534BE360FEE73268534B9A4209D00C236E
:1040700023704E4B636040F22913A3604C4BE36006
:10408000FEE7FDF738FE8046376AA7B1013F376289
:104090000DB1736A2B60376A4046FDF730FE00238E
:1040A0002370424B636040F23513A360404BE360E2
:1040B0003846BDE8F08719F4004F10D00DB1002349
:1040C0002B60376A4046FDF71AFE1D232370374BDD
:1040D000636040F24313A360354BE360E8E7374B7E
:1040E0001B787BB10DB100232B604046FDF707FE26
:1040F0002D2323702D4B636040F24F13A3602C4B94
:10410000E360D5E7524606213046FFF795FA404670
:10411000FDF7F5FDFFF784F8FDF7EDFD8046284B30
:104120001B6893F83120032A3BD8DFE802F0021322
:104130002D200DB15B6C2B60002323701B4B636043
:104140004FF4B373A3601A4BE360376A4046FDF740
:10415000D6FDADE70DB15B6C2B6021232370134BB3
:1041600063604FF4B873A360114BE360EDE70DB1EA
:1041700000232B60222323700C4B63604FF4BD732C
:10418000A3600B4BE360E0E70DB15B6C2B60312368
:104190002370064B63604FF4C273A360044BE3606B
:1041A000D3E7FDF7ACFDFEF7C3FCCEE7D40C01006E
:1041B000540D0100C95E002053454D41C05E0020F2
:1041C000DC6100202DE9F04383B006460D4614461D
:1041D0006AB1454B1B78012B0CD002232370434B53
:1041E000636040F21323A360414BE360FEE7FEF7F8
:1041F0009FFCEEE79EB1E5B1B5F5007F19D0B5F5AE
:10420000004F16D0B5F5024F13D008232370374B5B
:1042100063604FF40773A360354BE360FEE70A2346
:104220002370324B636040F21623A360304BE3608F
:10423000FEE732682F4B9A4209D00C2323702B4B98
:10424000636040F21F23A360294BE360FEE701F0A7
:10425000E7F88046FDF74FFD0746B16881BB356A38
:10426000B5F1FF3F0FD1FDF74AFD1E2323701F4B11
:10427000636040F22E23A3601D4BE36000252846B7
:1042800003B0BDE8F08301353562C6F82480FDF740
:1042900036FD00232370154B636040F23923A36081
:1042A000134BE360EBE7D1F82490CDF800800023B6
:1042B0001A463046FEF73EFF494615F4007F01D00E
:1042C0000029F0D13846FDF71AFD15F4004F01D151
:1042D000FEF7A6FF00252570044B636040F24F23D4
:1042E000A360034BE360CAE7C95E0020D40C010061
:1042F000600D010053454D4170B505460E4614460C
:1043000062B1FDF7FFFC60B120232370214B636095
:1043100040F27123A360204BE360FEE7FEF708FC48
:10432000EFE76DB12A681D4B9A4213D00C2323701E
:10433000184B636040F27723A360174BE360FEE7FE
:104340000A232370134B63604FF41D73A360124B59
:10435000E360FEE7002323700E4B636040F2792395
:10436000A3600D4BE360FDF7C6FC2B6A1BB12E6208
:10437000FDF7C5FC70BDAB680BB92E62F8E72E23C4
:104380002370044B636040F28223A360024BE3601E
:10439000EEE700BFD40C01006C0D010053454D4108
:1043A000064BC36100234361054B1B6823B1836146
:1043B0005861034B186070478361FAE72C050100D0
:1043C000D46100202DE9F04105460F4690461C4679
:1043D0005BB1FDF797FC58B1202323701C4B636041
:1043E0005823A3601B4BE360FEE7FEF7A1FBF0E759
:1043F00045B90A232370164B63605B23A360154BFA
:10440000E360FEE7FDF777FC0646282200212846F8
:104410000AF050FE104B2B60C5F820806F6005F14C
:104420000800FEF729FC2846FFF7BAFF0B4A13885D
:10443000013313803046FDF762FC00232370044BE8
:1044400063607323A360034BE360BDE8F08100BFAA
:10445000D40C0100480D010053454D410462002079
:10446000F8B5074688B1FDF746FC0023244A1380BF
:10447000244A1360244A1381FDF741FCFDF73BFCFD
:10448000224B1C68FDF73BFC1FE0FEF751FBEAE7FF
:10449000FDF731FC06460025C4F89050C4F8D4500E
:1044A000C4F8BC50A4F8B650A4F8B850C4F8C8502A
:1044B000C4F8CC5000F0B4FFC4F8C400A4F888508D
:1044C000D4F8E4403046FDF71AFC002CE0D1FDF7AB
:1044D00012FC0F4B1C68FDF712FC06E0FDF70BFC0D
:1044E0000023A385A469FDF70AFC002CF6D1002364
:1044F0003B70084B7B60A423BB60074BFB60F8BD9F
:10450000E2610020C45E0020F4610020E861002028
:1045100000620020780D0100000E010000B58BB094
:1045200000230F4A13700F4A13700890032207925A
:104530000693059304930C4A126803920B4A12687F
:1045400002920B4A126801920A4A127800920A4AB1
:104550000A490B4800F024FB0BB05DF804FB00BFD8
:10456000D161002018620020BC2D0020B82D002051
:10457000B42D0020AC2D002095450000EC0D01006D
:104580001C62002008B500F04BFF014B186008BD0D
:10459000982E00202DE9F04385B06846FFF760FFB4
:1045A000684600F07FFD04469DF800300BB1FEF731
:1045B000BFFA664B1B68A34204D2B4FBF3F8B8F110
:1045C000000F04D1624BA3FB04344FEAD40800244B
:1045D0008BE000F025FF5F4B1D68451B013D93E01C
:1045E000012042F21076B5FBF0F509FB06F3B3FBB0
:1045F000F5F39BB242F21072934200D91346564A29
:104600001380C3F51C5310339BB2544A1380544A91
:104610001288934202D90CB1514A1380FDF76BFB0B
:10462000504B1C68FDF76BFB1BE00A204FF47A76B9
:10463000D9E764200646D6E742F210700126D2E799
:10464000FDF759FBD4F8C830C4F8CC300023C4F8C7
:10465000C830FDF754FBFDF74EFBD4F8E440FDF7FE
:104660004EFB002CECD1FDF746FB3E4B1C68FDF7E2
:1046700046FB0DE06B4604F1D80204F1DC01204654
:1046800000F034F9FDF737FBD4F8E440FDF737FBD1
:10469000A4B1D4F8CC3006FB03F3B3FBF5F39BB223
:1046A00042F21072934200D91346A4F8B630B4F81F
:1046B000B8209A42DED2A4F8B830DBE72A4B1B7848
:1046C000012B3BD000F08EFFFFF75CFF00F0A8FE4F
:1046D000C01B264B1B68834201D2244B18606A46DC
:1046E0000021404600F0F0FC012400F099FE07464E
:1046F00000F096FE174B1B689842FFF46AAF00F07B
:104700008FFE144B1D68451BFDF7F5FA184BD3F8C7
:10471000009000221A60FDF7F2FA164B9D427FF6D8
:104720005FAF154B9D4280D9144B9D4281D9144BEC
:104730009D4281D84FF47A700A2654E70A4B002232
:104740001A706846FFF78CFEBCE700BFB02D002052
:10475000CDCCCCCC982E00208C2E0020F0610020F7
:10476000E2610020E861002018620020C45E0020A1
:10477000942E00207F1A0600FF083D00FF596202B8
:10478000FF83D71708B500F04BFE014B186008BD3A
:10479000902E002008B500F043FE0A4B1B6898429B
:1047A0000AD200F03DFE074B1B68C01A0138064ACA
:1047B00013681844106008BD00F032FE014B1B68FE
:1047C000C01AF4E7902E0020942E002070B5054604
:1047D0000E4614465AB1022E0CD908232370104BF2
:1047E000636040F2E933A3600E4BE360FEE7FEF73F
:1047F0009FF9F0E7FDF77FFA0DB90B4B1D682436E2
:1048000005EB86056D68FDF77AFA00232370044BEB
:10481000636040F2F133A360024BE360284670BD51
:104820000C0E0100A40E0100DC61002038B5044626
:10483000A8B1FDF760FA124B1D78022D12D86B1C3F
:104840000F4A1370FDF75BFA002323700D4B636072
:1048500040F21543A3600C4BE360284638BDFEF7D9
:1048600067F9E6E7FDF74BFA11232370054B636008
:1048700040F20E43A360044BE3600325EDE700BF65
:10488000C85E00200C0E0100B40E0100F8B505460C
:104890000E4617461C465BB1022E0CD90823237026
:1048A0000F4B636040F23743A3600E4BE360FEE7BB
:1048B000FEF73EF9F0E7FDF71EFA0DB90A4B1D6849
:1048C000243605EB86056F60FDF719FA0023237087
:1048D000034B636040F23F43A360024BE360F8BDCB
:1048E0000C0E0100C40E0100DC610020F8B5054685
:1048F0000F4616461C4663B1FDF704FA60B120234B
:104900002370324B636040F29E63A360304BE360E0
:10491000FEE7FEF70DF9EFE7B7B1FEB1FDF7EBF9F2
:104920000DB92C4B1D682B6813BBFDF7E8F900236C
:104930003B60336008232370244B636040F2AE6316
:10494000A360234BE360F8BD0A2323701F4B636011
:1049500040F2A163A3601E4BE360FEE70A232370CD
:104960001A4B636040F2A363A360194BE360FEE758
:10497000B5F8403013F0010F0ED1FDF7C0F9002358
:104980003B60336007232370104B636040F2B663D3
:10499000A3600F4BE360D6E7FDF7B1F9AB692033B5
:1049A000002201E00433013219680029FAD03A608C
:1049B000EB6B9A1A326000232370044B636040F261
:1049C000D163A360024BE360BDE700BF0C0E0100A2
:1049D000D40E0100DC6100200023C0F8E030064B5B
:1049E0001B6833B1C0F8E430C3F8E000024B186034
:1049F0007047C0F8E430F9E7E8610020D0F8E02023
:104A0000D0F8E43052B19BB1C2F8E430C3F8E020F2
:104A10000023C0F8E430C0F8E0307047074A136064
:104A200013B10022C3F8E0200023C0F8E43070473F
:104A3000C2F8E430C0F8E030704700BFE861002001
:104A40000023074A1360074A1380074A1360037064
:104A5000064B436040F2FC738360054BC3607047B4
:104A6000E8610020F2610020EC6100200C0E0100E2
:104A7000E40E010038B50446EC2200210AF01AFBCE
:104A80002B4BE360002104F17C00FEF7A3FF002321
:104A9000C4F88C30C4F89030C4F8A030A4F8A83022
:104AA000C4F8A430C4F8AC30C4F8B03007E003F167
:104AB000240204EB8202002151600133DBB2022B9D
:104AC000F5D90025A564C4F8D050C4F8D450E563E6
:104AD00084F8B450C4F8DC50C4F8D850A4F840505E
:104AE000256584F84C50E5662567A4F8B650A4F80F
:104AF000B850C4F8BC50C4F8C05000F091FCC4F8E1
:104B0000C400C4F8C85084F8305084F8315084F898
:104B10003250402384F8333084F83430A563C4F82D
:104B2000E050C4F8E450034BC4F8E83038BD00BF8F
:104B3000800E01002C0501000023072B06D8016818
:104B4000044A914204D104300133F6E70120704752
:104B5000002070474523CDAB08B5034658B11A680D
:104B6000986982420AD3D96B00EB81039A4207D23B
:104B7000FFF7E2FF03E0034B1B68F0E7002008BDEE
:104B80000020FCE7DC610020002303E0034A40F83A
:104B900023200133072BF9D9704700BF4523CDAB44
:104BA0002DE9F04F87B005460591029203939DF8D9
:104BB00040A0119E129FDDF84C80BDF85030049348
:104BC000BDF85C90189C5CB1FDF79CF858B12023AF
:104BD0002370854B6360F023A360844BE360FEE7A2
:104BE000FDF7A6FFF0E75DB1029B93B1D6B90A23AA
:104BF00023707D4B6360F923A3607C4BE360FEE789
:104C00000A232370784B6360F323A360774BE36040
:104C1000FEE70A232370744B6360F623A360734B93
:104C2000E360FEE7724B1B68434508D908232370F5
:104C30006D4B6360FC23A3606C4BE360FEE7B845FB
:104C400008D808232370684B6360FF23A360674B79
:104C5000E360FEE7BAF13F0F09D908232370624BE6
:104C600063604FF48173A360604BE360FEE7614BC8
:104C70001B88049A934209D2082323705A4B63601D
:104C80004FF48373A360594BE360FEE72846FFF7B8
:104C9000F1FE00232370544B636040F20B13A360BA
:104CA000524BE36019F0030F02D019F0020F76D1D6
:104CB00027F0070706EB8707CDF80490CDF80080B2
:104CC0003B4632460399029800F090FC83468642A8
:104CD0000AD932232370444B63604FF49473A3606A
:104CE000424BE360FDF724FF41463046FFF74CFF9F
:104CF000029BEB61039B2B62059BEB6085F833A065
:104D000085F834A0C5F800B0AF60159BEB66002BAA
:104D100048D1394B1C6802F0B5FF384B1A6802F1D4
:104D2000FF3A4FF0000B0023E0FB04AB504659461E
:104D300009F0AEFF2867169B6B60AE61C5F83C803A
:104D4000A5F840900023022B3ED9049905F17C0080
:104D5000FEF740FE284600F046FCFCF7CCFF044678
:104D600095F83300FFF70CF92846FEF7A1F928461D
:104D7000FFF732FE224A138801331380214B1B7840
:104D8000012B2AD02046FCF7BAFF07B0BDE8F08F10
:104D9000002142F8041B01334345F9D388E732462A
:104DA0000023F9E702F06EFF144B1A6802F1FF3A94
:104DB0004FF0000B00231599E0FB01AB504659461C
:104DC00009F066FF2867B6E703F1240205EB8202CB
:104DD000002151600133DBB2B5E72046FCF78FFFBD
:104DE000FEF71EFAD1E700BF0C0E0100880E01008D
:104DF000D40A0100A42D002008620020C42D002048
:104E0000F2610020C95E002070B504460D4694F89A
:104E1000336094F83230052B14D8042B1BD2012BAD
:104E200019D01BD82046FEF749FB84F8335028469A
:104E3000FFF7A6F82B4B1B68A34208D02046FEF7CD
:104E400037F903E0072B09D9FF2B48D170BD204665
:104E5000FEF702F9FAE784F83350F7E784F83350A5
:104E600094F83030013B072B36D801A252F823F0DA
:104E7000914E00004D4E0000D94E0000994E0000AA
:104E8000914E0000914E00004D4E0000914E0000EA
:104E90002046FDF741FFD9E72046FDF73DFFE36AD5
:104EA0005C6AB54206D294F83330AB42CED9002CBE
:104EB000ADD1CBE794F83330B342F8D12046FEF7BA
:104EC0001DFF94F83450854228BF0546EDB294F892
:104ED0003330AB42EBD1B9E7FDF72AFEB6E7FDF779
:104EE00027FEB3E7DC6100202DE9F04104460D46C2
:104EF00061B1FCF707FF60B120232B705C4B6B6046
:104F000040F2B513AB605B4BEB60FEE7FDF710FEC4
:104F1000EFE7594B1B78012B09D002232B70544B20
:104F20006B604FF4DC73AB60524BEB60FEE72CB967
:104F3000FCF7E1FE514B1C68FCF7E1FEFCF7DBFEE1
:104F4000804694F83230042B24D00DD8012B0FD09A
:104F50001DD994F83030082B7AD8DFE803F04441AB
:104F60004479534141444100072B09D8062BF0D224
:104F700004F1540002F0C4FD60B1FDF7D9FD09E071
:104F8000FF2B68D0FCF7BBFEFDF7D2FD02E0204608
:104F9000FEF794FAA36B13B12046FEF7A7FF04F1C6
:104FA0007C00FEF7FBFC204600F01EFB2046FFF7CE
:104FB00025FD334A1388013B1380FF2384F83230E8
:104FC0004046FCF79CFE00232B70294B6B6040F29F
:104FD0002D23AB60274BEB60FEF722F9BDE8F08193
:104FE0002046FDF77BFE94F83230032B01D0072BCF
:104FF000D0D104F1540002F083FD0028CAD0FDF79F
:1050000097FDC7E7E36A5E6A96F833702046FDF7BE
:1050100065FE96F8333096F8342093420CD094F81D
:105020003320934208D13046FEF768FE96F83430BC
:10503000834228BF0346DFB2002384F8303096F85D
:105040003330BB42CFD039463046FFF7DDFECAE7EA
:10505000FDF76EFDC7E7FCF752FE1F232B70044BD4
:105060006B6040F20523AB60024BEB6092E700BF40
:105070000C0E0100980E0100C95E0020DC610020CA
:10508000F261002000B585B0054B186800F0ADFA5C
:1050900069460020FFF728FF05B05DF804FB00BF5C
:1050A000DC61002000230370044B436041238360D4
:1050B000034BC360034B1868704700BFF00E01003C
:1050C000640F0100C42D00202DE9F04383B0054694
:1050D0000E4614465AB1FCF715FE58B12023237032
:1050E000674B63606E23A360664BE360FEE7FDF7EA
:1050F0001FFDF0E7644B1B78012B08D002232370BF
:105100005F4B63607123A3605E4BE360FEE75F4B20
:105110001B7853B12D232370594B63607423A36014
:10512000584BE36003B0BDE8F08366B1022E0AD0AD
:10513000082E08D008232370514B63607B23A360A3
:10514000504BE360FEE755B9082E08D108232370C1
:105150004B4B63607E23A3604A4BE360FEE7D6B10E
:10516000022E18D002F082FD494B1E68A0FB066794
:1051700002F088FD024600233046394609F088FDDA
:10518000444B1A6892F84C30BBB1136D1D44156541
:105190002D1A25EAE575002D52D0FCF7ACFD074627
:1051A0003D4B1B68AB420ED21E232370344B636011
:1051B0009E23A360334BE360B4E7284410650123CA
:1051C00082F84C30E7E7002602F05CFD304B1A68AD
:1051D00002F1FF384FF000093346E0FB05894046F5
:1051E000494609F055FD2B4B1D68019600962B464C
:1051F0002A4A014605F1540002F0D2FC58B1384663
:10520000FCF77DFD012323701D4B6360AC23A3607D
:105210001C4BE36086E71F4B1868012380F832308F
:10522000FEF74CF93846FCF76AFDFDF7F9FF00235D
:105230002370134B6360C523A360124BE36071E7D7
:10524000FCF759FD0546164B1A780C2303FB02F3B5
:10525000144A98189A5843689A420BD12846FCF78A
:105260004EFD00232370064B6360BB23A360054BF8
:10527000E36057E7FDF7B8FF2846FCF740FDD4E7A9
:10528000F00E0100780F0100C95E0020C05E002012
:10529000C42D0020DC610020CC2D0020A9330000AB
:1052A000D8610020CC5E00202DE9F84305468846F1
:1052B00017461E46BDF82090099C74B109F00A01FA
:1052C00039F01A030CD008232370444B636040F27A
:1052D0000713A360424BE360FEE7FDF729FCEDE70F
:1052E00019F0100F31D1B6F57A7F09D30823237056
:1052F0003A4B63604FF48573A360394BE360FEE77C
:105300003B2F09D908232370344B636040F20B1301
:10531000A360334BE360FEE7B8F13B0F09D90823E4
:1053200023702E4B63604FF48673A3602C4BE360B5
:10533000FEE7632D24D908232370284B636040F2D5
:105340000D13A360264BE360FEE742F20F7398450E
:1053500009D908232370214B636040F20F13A36027
:105360001F4BE360FEE7B5F57A7F09D3082323706E
:105370001A4B63604FF48873A360194BE360FEE738
:105380003C2000FB08F04FF4616303FB0500384448
:105390004FF47A7303FB0063124A12689A420AD2EE
:1053A0001E2323700D4B636040F21B13A3600C4B54
:1053B000E360BDE8F8830C4B1D684FF4FA73B3FB50
:1053C000F5F3334403FB05F34FF47A72B3FBF2F3C6
:1053D000224605FB0030FFF777FEEAE7F00E0100FA
:1053E000840F0100C82D0020C42D002008B5FBF754
:1053F000FDFB084A136843F080731360064B0022DC
:105400001A60064A136843F001031360FDF792FB2C
:1054100008BD00BFFCED00E0041000E0001000E05B
:10542000014B1868704700BF041000E0B0FA80F02C
:10543000704790FAA0F0B0FA80F0704790FAA0F0B0
:10544000704700BF72B64EF62250CEF2000040F216
:10545000FF01C0F200010170002080F3098846F2CC
:105460001030C2F20000016881F3088800F008F9EA
:1054700046F2D810C2F2000046F2D011C2F200018A
:105480000A78027046F2DC10C2F2000046F2E41123
:10549000C2F200010A680260106880F30988EFF325
:1054A000148040F0020020F0040080F31488BFF361
:1054B0006F8FBDE8F04F0FBCBDE8005006BC62B670
:1054C000084732484FF08051016070472F484FF035
:1054D00080510160704772B646F2DC12C2F20002DF
:1054E000116800290ED0EFF309801EF0100F08BFDD
:1054F00020ED108A20E9F04F46F2DC15C2F20005DB
:1055000029680860744600F0BBF846F2DC11C2F26C
:10551000000146F2E410C2F2000003680B6046F29C
:10552000D812C2F2000246F2D011C2F2000108788D
:10553000107044F0040E002B0AD01868B0E8F04F49
:105540001EF0100F08BFB0EC108A80F309881BE032
:1055500046F21031C2F200010868A0F11C0080F38D
:10556000088840F20001C0F20011C16145F291517A
:10557000C0F20001816145F28501C0F20001416184
:105580004FF6F97ECFF6FF7E62B6704704ED00E07D
:1055900000BFFDE70A4B1A6802F18042013A094B4D
:1055A0001B6803EB820323F00703074A1360074BD2
:1055B0001B6803F04043B3F1404F00D0FEE7704753
:1055C000982D0020942D00201063002034EF00E07F
:1055D00010B5FCF790FB0446FDF7AAFA2046FCF74D
:1055E0008EFB10BD704770477047704710B4019C28
:1055F00002EB840222F007024FF0807442F8044C60
:1056000042F8080C1D4842F80C0C4FF0123042F8DA
:10561000100C4FF0033042F8140C4FF0023042F8F7
:10562000180C42F81C3C42F8201C6FF0020342F8B0
:10563000243C4FF0113342F8283C4FF0103342F82D
:105640002C3C4FF0093342F8303C4FF0083342F81D
:10565000343C4FF0073342F8383C4FF0063342F801
:105660003C3C4FF0053342F8403C4FF0043342F8E5
:10567000443CA2F144005DF8044B704785500000A3
:1056800008B50D4B1B783BB10C4B1868036F83B109
:105690000A4B1868FDF74AFF094B1B6843B100200D
:1056A000FFF75AFA012803D0054B1868FFF790FF5F
:1056B00008BDFDF75BFFEBE708630020E461002015
:1056C000DC61002038B5044604F0A5F8044D0FCC89
:1056D0000FC594E80F0085E80F00002038BD00BF1B
:1056E0009C2E002047F6FF739A4276D0022976D886
:1056F000F0B40D463C4B03EBC1008478012CB8BFDD
:105700000124204613F83130012B24D0364B03EB13
:10571000C1035C68002C64D0B4F90060964204DBDD
:10572000B4F90260964200DC1646A388FF2B26D00F
:105730002827C823002235469B1B93FBF7F313440D
:105740001BB2294A02EBC1014E78721E12B29A4274
:105750002BDB1A4629E0244B03EBC101C878001B60
:1057600001E0013800B238B11F4B03EBC5035B68A1
:1057700033F910309342F4DC2044C0B22BE0B4F98A
:105780000630B4F908700122D5E703F5FA7317491A
:10579000A1FB03139B09013212B21746B2420FDA82
:1057A00004EBC201898899420AD304EBC2018F68D5
:1057B000B1F9063003FB0573002BE6DA0023E4E7BA
:1057C0007A1E04EBC20292889A4200D31A468242A1
:1057D00000D31046C0B2F0BC7047FF2070470020D5
:1057E00070470020F7E700BF9C2E0020D34D6210C9
:1057F00002295ED8344B13F83130012B27D0002A10
:1058000059D0F0B4304B03EBC1035C68002C54D08A
:10581000251D54D0B4F90200844682422FDD2A4B64
:1058200003EBC103DB78934227D9274B03EBC1017C
:105830004F78013FFFB20023BB4222D2591C35F8FA
:10584000316091B28E421CD30133DBB2F4E71E4BC0
:1058500003EBC103DB7893420DD21B4A02EBC1017B
:105860008A78012AACBF9B1A03F1FF33DBB24A6886
:1058700032F9130070471346EFE7B4F90000F0BCAB
:1058800070474FF47A7101FB02F205EBC3035968CC
:10589000521AB3F9021001EBD17302EB630393FBCD
:1058A000F1F3B4F900209A420BDB9C45E7DC18B217
:1058B000E5E706487047064870470448DFE70348B5
:1058C000DDE71046DBE700BF9C2E00200080FFFFD5
:1058D0000CFEFFFF08B50248FFF7F4FE08BD00BF4D
:1058E000940F010070B582B004460D4603F0DAFF54
:1058F00008B102B070BD6946204603F08EFF00B1CA
:10590000FEE76A680F4B9A420ED80F4D9DF80030A3
:105910002A789342EDD0032B08D1642629462046ED
:1059200003F063FF38B1FEE7084DEFE7204603F0D0
:105930009DFF0646F2E73146204603F072FF00283D
:10594000D7D0FEE7FFC99A3B04120020FC110020CB
:10595000014B1868704700BFBC2E002000000000FB
:1059600010B586B0FBF760FB1F4B984200D020B902
:10597000002103A8FBF728FB50B31C491C4803F087
:10598000B7FC1C4C20601C4A1C4B196803F0D0FE6D
:105990000021206803F0F0FF11A3D3E90023CDE933
:1059A00000234FF0FF324FF0FF33206803F006FF73
:1059B000134B1B88ADF81430ADF8103005A92068E2
:1059C00003F0E0FE04A9206803F0F4FE06B010BD69
:1059D0009DF80C0003F0E2FCCFE700BFAFF30080BE
:1059E000088D812A11010000038000F09D0900004C
:1059F0000C120020BC2E0020A70900000811002076
:105A00004C10010000B587B0002301930393049369
:105A1000059302238DF804300C4B029306228DF877
:105A20000C2001238DF80D300C218DF80E108DF80F
:105A300012208DF813300D238DF8143001A94FF08A
:105A4000FF3003F0DBFF07B05DF804FB006A1800CD
:105A50002D2822D8DFE800F0172121212121212142
:105A60002121212121212121212121212121212126
:105A70002121212121211B212123212121211D211E
:105A80002121211F211907487047074870470748FF
:105A900070470748704707487047074870470748EE
:105AA000704700BFEC110100781001008C1001005C
:105AB000B4100100CC100100EC10010050100100E6
:105AC000F0B58FB00B46CF6809689A691D695E69A9
:105AD0000C4BA3FB0643DB080AAC08940224079492
